{
  "_format": "hh-sol-artifact-1",
  "contractName": "Domains",
  "sourceName": "contracts/Domains.sol",
  "abi": [
    {
      "inputs": [
        {
          "internalType": "string",
          "name": "_tld",
          "type": "string"
        }
      ],
      "stateMutability": "payable",
      "type": "constructor"
    },
    {
      "anonymous": false,
      "inputs": [
        {
          "indexed": true,
          "internalType": "address",
          "name": "owner",
          "type": "address"
        },
        {
          "indexed": true,
          "internalType": "address",
          "name": "approved",
          "type": "address"
        },
        {
          "indexed": true,
          "internalType": "uint256",
          "name": "tokenId",
          "type": "uint256"
        }
      ],
      "name": "Approval",
      "type": "event"
    },
    {
      "anonymous": false,
      "inputs": [
        {
          "indexed": true,
          "internalType": "address",
          "name": "owner",
          "type": "address"
        },
        {
          "indexed": true,
          "internalType": "address",
          "name": "operator",
          "type": "address"
        },
        {
          "indexed": false,
          "internalType": "bool",
          "name": "approved",
          "type": "bool"
        }
      ],
      "name": "ApprovalForAll",
      "type": "event"
    },
    {
      "anonymous": false,
      "inputs": [
        {
          "indexed": true,
          "internalType": "address",
          "name": "from",
          "type": "address"
        },
        {
          "indexed": true,
          "internalType": "address",
          "name": "to",
          "type": "address"
        },
        {
          "indexed": true,
          "internalType": "uint256",
          "name": "tokenId",
          "type": "uint256"
        }
      ],
      "name": "Transfer",
      "type": "event"
    },
    {
      "inputs": [
        {
          "internalType": "address",
          "name": "to",
          "type": "address"
        },
        {
          "internalType": "uint256",
          "name": "tokenId",
          "type": "uint256"
        }
      ],
      "name": "approve",
      "outputs": [],
      "stateMutability": "nonpayable",
      "type": "function"
    },
    {
      "inputs": [
        {
          "internalType": "address",
          "name": "owner",
          "type": "address"
        }
      ],
      "name": "balanceOf",
      "outputs": [
        {
          "internalType": "uint256",
          "name": "",
          "type": "uint256"
        }
      ],
      "stateMutability": "view",
      "type": "function"
    },
    {
      "inputs": [
        {
          "internalType": "string",
          "name": "",
          "type": "string"
        }
      ],
      "name": "domains",
      "outputs": [
        {
          "internalType": "address",
          "name": "",
          "type": "address"
        }
      ],
      "stateMutability": "view",
      "type": "function"
    },
    {
      "inputs": [
        {
          "internalType": "string",
          "name": "name",
          "type": "string"
        }
      ],
      "name": "getAddress",
      "outputs": [
        {
          "internalType": "address",
          "name": "",
          "type": "address"
        }
      ],
      "stateMutability": "view",
      "type": "function"
    },
    {
      "inputs": [
        {
          "internalType": "uint256",
          "name": "tokenId",
          "type": "uint256"
        }
      ],
      "name": "getApproved",
      "outputs": [
        {
          "internalType": "address",
          "name": "",
          "type": "address"
        }
      ],
      "stateMutability": "view",
      "type": "function"
    },
    {
      "inputs": [
        {
          "internalType": "string",
          "name": "name",
          "type": "string"
        }
      ],
      "name": "getRecord",
      "outputs": [
        {
          "internalType": "string",
          "name": "",
          "type": "string"
        }
      ],
      "stateMutability": "view",
      "type": "function"
    },
    {
      "inputs": [
        {
          "internalType": "address",
          "name": "owner",
          "type": "address"
        },
        {
          "internalType": "address",
          "name": "operator",
          "type": "address"
        }
      ],
      "name": "isApprovedForAll",
      "outputs": [
        {
          "internalType": "bool",
          "name": "",
          "type": "bool"
        }
      ],
      "stateMutability": "view",
      "type": "function"
    },
    {
      "inputs": [],
      "name": "isOwner",
      "outputs": [
        {
          "internalType": "bool",
          "name": "",
          "type": "bool"
        }
      ],
      "stateMutability": "view",
      "type": "function"
    },
    {
      "inputs": [],
      "name": "name",
      "outputs": [
        {
          "internalType": "string",
          "name": "",
          "type": "string"
        }
      ],
      "stateMutability": "view",
      "type": "function"
    },
    {
      "inputs": [],
      "name": "owner",
      "outputs": [
        {
          "internalType": "address payable",
          "name": "",
          "type": "address"
        }
      ],
      "stateMutability": "view",
      "type": "function"
    },
    {
      "inputs": [
        {
          "internalType": "uint256",
          "name": "tokenId",
          "type": "uint256"
        }
      ],
      "name": "ownerOf",
      "outputs": [
        {
          "internalType": "address",
          "name": "",
          "type": "address"
        }
      ],
      "stateMutability": "view",
      "type": "function"
    },
    {
      "inputs": [
        {
          "internalType": "string",
          "name": "name",
          "type": "string"
        }
      ],
      "name": "price",
      "outputs": [
        {
          "internalType": "uint256",
          "name": "",
          "type": "uint256"
        }
      ],
      "stateMutability": "pure",
      "type": "function"
    },
    {
      "inputs": [
        {
          "internalType": "string",
          "name": "",
          "type": "string"
        }
      ],
      "name": "records",
      "outputs": [
        {
          "internalType": "string",
          "name": "",
          "type": "string"
        }
      ],
      "stateMutability": "view",
      "type": "function"
    },
    {
      "inputs": [
        {
          "internalType": "string",
          "name": "name",
          "type": "string"
        }
      ],
      "name": "register",
      "outputs": [],
      "stateMutability": "payable",
      "type": "function"
    },
    {
      "inputs": [
        {
          "internalType": "address",
          "name": "from",
          "type": "address"
        },
        {
          "internalType": "address",
          "name": "to",
          "type": "address"
        },
        {
          "internalType": "uint256",
          "name": "tokenId",
          "type": "uint256"
        }
      ],
      "name": "safeTransferFrom",
      "outputs": [],
      "stateMutability": "nonpayable",
      "type": "function"
    },
    {
      "inputs": [
        {
          "internalType": "address",
          "name": "from",
          "type": "address"
        },
        {
          "internalType": "address",
          "name": "to",
          "type": "address"
        },
        {
          "internalType": "uint256",
          "name": "tokenId",
          "type": "uint256"
        },
        {
          "internalType": "bytes",
          "name": "data",
          "type": "bytes"
        }
      ],
      "name": "safeTransferFrom",
      "outputs": [],
      "stateMutability": "nonpayable",
      "type": "function"
    },
    {
      "inputs": [
        {
          "internalType": "address",
          "name": "operator",
          "type": "address"
        },
        {
          "internalType": "bool",
          "name": "approved",
          "type": "bool"
        }
      ],
      "name": "setApprovalForAll",
      "outputs": [],
      "stateMutability": "nonpayable",
      "type": "function"
    },
    {
      "inputs": [
        {
          "internalType": "string",
          "name": "name",
          "type": "string"
        },
        {
          "internalType": "string",
          "name": "record",
          "type": "string"
        }
      ],
      "name": "setRecord",
      "outputs": [],
      "stateMutability": "nonpayable",
      "type": "function"
    },
    {
      "inputs": [
        {
          "internalType": "bytes4",
          "name": "interfaceId",
          "type": "bytes4"
        }
      ],
      "name": "supportsInterface",
      "outputs": [
        {
          "internalType": "bool",
          "name": "",
          "type": "bool"
        }
      ],
      "stateMutability": "view",
      "type": "function"
    },
    {
      "inputs": [],
      "name": "symbol",
      "outputs": [
        {
          "internalType": "string",
          "name": "",
          "type": "string"
        }
      ],
      "stateMutability": "view",
      "type": "function"
    },
    {
      "inputs": [],
      "name": "tld",
      "outputs": [
        {
          "internalType": "string",
          "name": "",
          "type": "string"
        }
      ],
      "stateMutability": "view",
      "type": "function"
    },
    {
      "inputs": [
        {
          "internalType": "uint256",
          "name": "tokenId",
          "type": "uint256"
        }
      ],
      "name": "tokenURI",
      "outputs": [
        {
          "internalType": "string",
          "name": "",
          "type": "string"
        }
      ],
      "stateMutability": "view",
      "type": "function"
    },
    {
      "inputs": [
        {
          "internalType": "address",
          "name": "from",
          "type": "address"
        },
        {
          "internalType": "address",
          "name": "to",
          "type": "address"
        },
        {
          "internalType": "uint256",
          "name": "tokenId",
          "type": "uint256"
        }
      ],
      "name": "transferFrom",
      "outputs": [],
      "stateMutability": "nonpayable",
      "type": "function"
    },
    {
      "inputs": [],
      "name": "withdraw",
      "outputs": [],
      "stateMutability": "nonpayable",
      "type": "function"
    }
  ],
  "bytecode": "0x6080604052604051806103a00160405280610376815260200162004da76103769139600890816200003191906200051f565b506040518060400160405280600d81526020017f3c2f746578743e3c2f7376673e00000000000000000000000000000000000000815250600990816200007891906200051f565b506040516200511d3803806200511d83398181016040528101906200009e91906200076a565b6040518060400160405280601181526020017f436f7265204e616d6520536572766963650000000000000000000000000000008152506040518060400160405280600381526020017f434e53000000000000000000000000000000000000000000000000000000000081525081600090816200011b91906200051f565b5080600190816200012d91906200051f565b50505033600d60006101000a81548173ffffffffffffffffffffffffffffffffffffffff021916908373ffffffffffffffffffffffffffffffffffffffff16021790555080600a90816200018291906200051f565b50620001cf6040518060400160405280601881526020017f2573206e616d652073657276696365206465706c6f796564000000000000000081525082620001d660201b6200162c1760201c565b5062000848565b620002788282604051602401620001ef9291906200080d565b6040516020818303038152906040527f4b5c4277000000000000000000000000000000000000000000000000000000007bffffffffffffffffffffffffffffffffffffffffffffffffffffffff19166020820180517bffffffffffffffffffffffffffffffffffffffffffffffffffffffff83818316178352505050506200027c60201b60201c565b5050565b60008151905060006a636f6e736f6c652e6c6f679050602083016000808483855afa5050505050565b600081519050919050565b7f4e487b7100000000000000000000000000000000000000000000000000000000600052604160045260246000fd5b7f4e487b7100000000000000000000000000000000000000000000000000000000600052602260045260246000fd5b600060028204905060018216806200032757607f821691505b6020821081036200033d576200033c620002df565b5b50919050565b60008190508160005260206000209050919050565b60006020601f8301049050919050565b600082821b905092915050565b600060088302620003a77fffffffffffffffffffffffffffffffffffffffffffffffffffffffffffffffff8262000368565b620003b3868362000368565b95508019841693508086168417925050509392505050565b6000819050919050565b6000819050919050565b600062000400620003fa620003f484620003cb565b620003d5565b620003cb565b9050919050565b6000819050919050565b6200041c83620003df565b620004346200042b8262000407565b84845462000375565b825550505050565b600090565b6200044b6200043c565b6200045881848462000411565b505050565b5b8181101562000480576200047460008262000441565b6001810190506200045e565b5050565b601f821115620004cf57620004998162000343565b620004a48462000358565b81016020851015620004b4578190505b620004cc620004c38562000358565b8301826200045d565b50505b505050565b600082821c905092915050565b6000620004f460001984600802620004d4565b1980831691505092915050565b60006200050f8383620004e1565b9150826002028217905092915050565b6200052a82620002a5565b67ffffffffffffffff811115620005465762000545620002b0565b5b6200055282546200030e565b6200055f82828562000484565b600060209050601f83116001811462000597576000841562000582578287015190505b6200058e858262000501565b865550620005fe565b601f198416620005a78662000343565b60005b82811015620005d157848901518255600182019150602085019450602081019050620005aa565b86831015620005f15784890151620005ed601f891682620004e1565b8355505b6001600288020188555050505b505050505050565b6000604051905090565b600080fd5b600080fd5b600080fd5b600080fd5b6000601f19601f8301169050919050565b620006408262000624565b810181811067ffffffffffffffff82111715620006625762000661620002b0565b5b80604052505050565b60006200067762000606565b905062000685828262000635565b919050565b600067ffffffffffffffff821115620006a857620006a7620002b0565b5b620006b38262000624565b9050602081019050919050565b60005b83811015620006e0578082015181840152602081019050620006c3565b60008484015250505050565b600062000703620006fd846200068a565b6200066b565b9050828152602081018484840111156200072257620007216200061f565b5b6200072f848285620006c0565b509392505050565b600082601f8301126200074f576200074e6200061a565b5b815162000761848260208601620006ec565b91505092915050565b60006020828403121562000783576200078262000610565b5b600082015167ffffffffffffffff811115620007a457620007a362000615565b5b620007b28482850162000737565b91505092915050565b600082825260208201905092915050565b6000620007d982620002a5565b620007e58185620007bb565b9350620007f7818560208601620006c0565b620008028162000624565b840191505092915050565b60006040820190508181036000830152620008298185620007cc565b905081810360208301526200083f8184620007cc565b90509392505050565b61454f80620008586000396000f3fe60806040526004361061014b5760003560e01c806370a08231116100b6578063bf40fac11161006f578063bf40fac1146104b6578063c1880a98146104f3578063c87b56dd1461051c578063e985e9c514610559578063f2c298be14610596578063fe2c6198146105b25761014b565b806370a08231146103a65780638da5cb5b146103e35780638f32d59b1461040e57806395d89b4114610439578063a22cb46514610464578063b88d4fde1461048d5761014b565b8063264492351161010857806326449235146102845780632d551432146102c15780633ccfd60b146102ec57806342842e0e14610303578063541e771d1461032c5780636352211e146103695761014b565b806301ffc9a71461015057806306fdde031461018d578063081812fc146101b8578063095ea7b3146101f557806311dd88451461021e57806323b872dd1461025b575b600080fd5b34801561015c57600080fd5b5061017760048036038101906101729190612a77565b6105ef565b6040516101849190612abf565b60405180910390f35b34801561019957600080fd5b506101a26106d1565b6040516101af9190612b6a565b60405180910390f35b3480156101c457600080fd5b506101df60048036038101906101da9190612bc2565b610763565b6040516101ec9190612c30565b60405180910390f35b34801561020157600080fd5b5061021c60048036038101906102179190612c77565b6107a9565b005b34801561022a57600080fd5b5061024560048036038101906102409190612d1c565b6108c0565b6040516102529190612b6a565b60405180910390f35b34801561026757600080fd5b50610282600480360381019061027d9190612d69565b610973565b005b34801561029057600080fd5b506102ab60048036038101906102a69190612eec565b6109d3565b6040516102b89190612c30565b60405180910390f35b3480156102cd57600080fd5b506102d6610a1c565b6040516102e39190612b6a565b60405180910390f35b3480156102f857600080fd5b50610301610aaa565b005b34801561030f57600080fd5b5061032a60048036038101906103259190612d69565b610b70565b005b34801561033857600080fd5b50610353600480360381019061034e9190612eec565b610b90565b6040516103609190612b6a565b60405180910390f35b34801561037557600080fd5b50610390600480360381019061038b9190612bc2565b610c46565b60405161039d9190612c30565b60405180910390f35b3480156103b257600080fd5b506103cd60048036038101906103c89190612f35565b610ccc565b6040516103da9190612f71565b60405180910390f35b3480156103ef57600080fd5b506103f8610d83565b6040516104059190612fad565b60405180910390f35b34801561041a57600080fd5b50610423610da9565b6040516104309190612abf565b60405180910390f35b34801561044557600080fd5b5061044e610e01565b60405161045b9190612b6a565b60405180910390f35b34801561047057600080fd5b5061048b60048036038101906104869190612ff4565b610e93565b005b34801561049957600080fd5b506104b460048036038101906104af91906130d5565b610ea9565b005b3480156104c257600080fd5b506104dd60048036038101906104d89190612d1c565b610f0b565b6040516104ea9190612c30565b60405180910390f35b3480156104ff57600080fd5b5061051a60048036038101906105159190613158565b610f56565b005b34801561052857600080fd5b50610543600480360381019061053e9190612bc2565b611004565b6040516105509190612b6a565b60405180910390f35b34801561056557600080fd5b50610580600480360381019061057b91906131d9565b611116565b60405161058d9190612abf565b60405180910390f35b6105b060048036038101906105ab9190612d1c565b6111aa565b005b3480156105be57600080fd5b506105d960048036038101906105d49190612d1c565b61158b565b6040516105e69190612f71565b60405180910390f35b60007f80ac58cd000000000000000000000000000000000000000000000000000000007bffffffffffffffffffffffffffffffffffffffffffffffffffffffff1916827bffffffffffffffffffffffffffffffffffffffffffffffffffffffff191614806106ba57507f5b5e139f000000000000000000000000000000000000000000000000000000007bffffffffffffffffffffffffffffffffffffffffffffffffffffffff1916827bffffffffffffffffffffffffffffffffffffffffffffffffffffffff1916145b806106ca57506106c9826116c8565b5b9050919050565b6060600080546106e090613248565b80601f016020809104026020016040519081016040528092919081815260200182805461070c90613248565b80156107595780601f1061072e57610100808354040283529160200191610759565b820191906000526020600020905b81548152906001019060200180831161073c57829003601f168201915b5050505050905090565b600061076e82611732565b6004600083815260200190815260200160002060009054906101000a900473ffffffffffffffffffffffffffffffffffffffff169050919050565b60006107b482610c46565b90508073ffffffffffffffffffffffffffffffffffffffff168373ffffffffffffffffffffffffffffffffffffffff1603610824576040517f08c379a000000000000000000000000000000000000000000000000000000000815260040161081b906132eb565b60405180910390fd5b8073ffffffffffffffffffffffffffffffffffffffff1661084361177d565b73ffffffffffffffffffffffffffffffffffffffff16148061087257506108718161086c61177d565b611116565b5b6108b1576040517f08c379a00000000000000000000000000000000000000000000000000000000081526004016108a89061337d565b60405180910390fd5b6108bb8383611785565b505050565b6060600c83836040516108d49291906133cd565b908152602001604051809103902080546108ed90613248565b80601f016020809104026020016040519081016040528092919081815260200182805461091990613248565b80156109665780601f1061093b57610100808354040283529160200191610966565b820191906000526020600020905b81548152906001019060200180831161094957829003601f168201915b5050505050905092915050565b61098461097e61177d565b8261183e565b6109c3576040517f08c379a00000000000000000000000000000000000000000000000000000000081526004016109ba90613458565b60405180910390fd5b6109ce8383836118d3565b505050565b600b818051602081018201805184825260208301602085012081835280955050505050506000915054906101000a900473ffffffffffffffffffffffffffffffffffffffff1681565b600a8054610a2990613248565b80601f0160208091040260200160405190810160405280929190818152602001828054610a5590613248565b8015610aa25780601f10610a7757610100808354040283529160200191610aa2565b820191906000526020600020905b815481529060010190602001808311610a8557829003601f168201915b505050505081565b610ab2610da9565b610abb57600080fd5b600047905060003373ffffffffffffffffffffffffffffffffffffffff1682604051610ae6906134a9565b60006040518083038185875af1925050503d8060008114610b23576040519150601f19603f3d011682016040523d82523d6000602084013e610b28565b606091505b5050905080610b6c576040517f08c379a0000000000000000000000000000000000000000000000000000000008152600401610b639061350a565b60405180910390fd5b5050565b610b8b83838360405180602001604052806000815250610ea9565b505050565b600c818051602081018201805184825260208301602085012081835280955050505050506000915090508054610bc590613248565b80601f0160208091040260200160405190810160405280929190818152602001828054610bf190613248565b8015610c3e5780601f10610c1357610100808354040283529160200191610c3e565b820191906000526020600020905b815481529060010190602001808311610c2157829003601f168201915b505050505081565b600080610c5283611bcc565b9050600073ffffffffffffffffffffffffffffffffffffffff168173ffffffffffffffffffffffffffffffffffffffff1603610cc3576040517f08c379a0000000000000000000000000000000000000000000000000000000008152600401610cba90613576565b60405180910390fd5b80915050919050565b60008073ffffffffffffffffffffffffffffffffffffffff168273ffffffffffffffffffffffffffffffffffffffff1603610d3c576040517f08c379a0000000000000000000000000000000000000000000000000000000008152600401610d3390613608565b60405180910390fd5b600360008373ffffffffffffffffffffffffffffffffffffffff1673ffffffffffffffffffffffffffffffffffffffff168152602001908152602001600020549050919050565b600d60009054906101000a900473ffffffffffffffffffffffffffffffffffffffff1681565b6000600d60009054906101000a900473ffffffffffffffffffffffffffffffffffffffff1673ffffffffffffffffffffffffffffffffffffffff163373ffffffffffffffffffffffffffffffffffffffff1614905090565b606060018054610e1090613248565b80601f0160208091040260200160405190810160405280929190818152602001828054610e3c90613248565b8015610e895780601f10610e5e57610100808354040283529160200191610e89565b820191906000526020600020905b815481529060010190602001808311610e6c57829003601f168201915b5050505050905090565b610ea5610e9e61177d565b8383611c09565b5050565b610eba610eb461177d565b8361183e565b610ef9576040517f08c379a0000000000000000000000000000000000000000000000000000000008152600401610ef090613458565b60405180910390fd5b610f0584848484611d75565b50505050565b6000600b8383604051610f1f9291906133cd565b908152602001604051809103902060009054906101000a900473ffffffffffffffffffffffffffffffffffffffff16905092915050565b3373ffffffffffffffffffffffffffffffffffffffff16600b8585604051610f7f9291906133cd565b908152602001604051809103902060009054906101000a900473ffffffffffffffffffffffffffffffffffffffff1673ffffffffffffffffffffffffffffffffffffffff1614610fce57600080fd5b8181600c8686604051610fe29291906133cd565b90815260200160405180910390209182610ffd9291906137df565b5050505050565b606061100f82611732565b600060066000848152602001908152602001600020805461102f90613248565b80601f016020809104026020016040519081016040528092919081815260200182805461105b90613248565b80156110a85780601f1061107d576101008083540402835291602001916110a8565b820191906000526020600020905b81548152906001019060200180831161108b57829003601f168201915b5050505050905060006110b9611dd1565b905060008151036110ce578192505050611111565b6000825111156111035780826040516020016110eb9291906138e0565b60405160208183030381529060405292505050611111565b61110c84611de8565b925050505b919050565b6000600560008473ffffffffffffffffffffffffffffffffffffffff1673ffffffffffffffffffffffffffffffffffffffff16815260200190815260200160002060008373ffffffffffffffffffffffffffffffffffffffff1673ffffffffffffffffffffffffffffffffffffffff16815260200190815260200160002060009054906101000a900460ff16905092915050565b600073ffffffffffffffffffffffffffffffffffffffff16600b83836040516111d49291906133cd565b908152602001604051809103902060009054906101000a900473ffffffffffffffffffffffffffffffffffffffff1673ffffffffffffffffffffffffffffffffffffffff161461122357600080fd5b600061122f838361158b565b905080341015611274576040517f08c379a000000000000000000000000000000000000000000000000000000000815260040161126b90613950565b60405180910390fd5b60008383600a60405160200161128c93929190613a3f565b6040516020818303038152906040529050600060088260096040516020016112b693929190613a70565b604051602081830303815290604052905060006112d36007611e50565b9050600061132487878080601f016020809104026020016040519081016040528093929190818152602001838380828437600081840152601f19601f82011690508083019250505050505050611e5e565b9050600061133182612013565b90506114256040518060600160405280603181526020016144706031913989898080601f016020809104026020016040519081016040528093929190818152602001838380828437600081840152601f19601f82011690508083019250505050505050600a80546113a190613248565b80601f01602080910402602001604051908101604052809291908181526020018280546113cd90613248565b801561141a5780601f106113ef5761010080835404028352916020019161141a565b820191906000526020600020905b8154815290600101906020018083116113fd57829003601f168201915b5050505050866120e1565b600061145b8661143487612183565b8460405160200161144793929190613c1d565b604051602081830303815290604052612183565b90506000816040516020016114709190613cc6565b60405160208183030381529060405290506114a2604051806060016040528060398152602001614437603991396122e6565b6114e16040518060400160405280600e81526020017f46696e616c20746f6b656e5552490000000000000000000000000000000000008152508261162c565b6115026040518060600160405280603981526020016144a1603991396122e6565b61150c338661237f565b611516858261239d565b33600b8b8b6040516115299291906133cd565b908152602001604051809103902060006101000a81548173ffffffffffffffffffffffffffffffffffffffff021916908373ffffffffffffffffffffffffffffffffffffffff16021790555061157f600761240a565b50505050505050505050565b6000806115db84848080601f016020809104026020016040519081016040528093929190818152602001838380828437600081840152601f19601f82011690508083019250505050505050611e5e565b9050600081116115ea57600080fd5b600381036116025766b1a2bc2ec50000915050611626565b6004810361161a57666a94d74f430000915050611626565b662386f26fc100009150505b92915050565b6116c48282604051602401611642929190613ce8565b6040516020818303038152906040527f4b5c4277000000000000000000000000000000000000000000000000000000007bffffffffffffffffffffffffffffffffffffffffffffffffffffffff19166020820180517bffffffffffffffffffffffffffffffffffffffffffffffffffffffff8381831617835250505050612420565b5050565b60007f01ffc9a7000000000000000000000000000000000000000000000000000000007bffffffffffffffffffffffffffffffffffffffffffffffffffffffff1916827bffffffffffffffffffffffffffffffffffffffffffffffffffffffff1916149050919050565b61173b81612449565b61177a576040517f08c379a000000000000000000000000000000000000000000000000000000000815260040161177190613576565b60405180910390fd5b50565b600033905090565b816004600083815260200190815260200160002060006101000a81548173ffffffffffffffffffffffffffffffffffffffff021916908373ffffffffffffffffffffffffffffffffffffffff160217905550808273ffffffffffffffffffffffffffffffffffffffff166117f883610c46565b73ffffffffffffffffffffffffffffffffffffffff167f8c5be1e5ebec7d5bd14f71427d1e84f3dd0314c0f7b2291e5b200ac8c7c3b92560405160405180910390a45050565b60008061184a83610c46565b90508073ffffffffffffffffffffffffffffffffffffffff168473ffffffffffffffffffffffffffffffffffffffff16148061188c575061188b8185611116565b5b806118ca57508373ffffffffffffffffffffffffffffffffffffffff166118b284610763565b73ffffffffffffffffffffffffffffffffffffffff16145b91505092915050565b8273ffffffffffffffffffffffffffffffffffffffff166118f382610c46565b73ffffffffffffffffffffffffffffffffffffffff1614611949576040517f08c379a000000000000000000000000000000000000000000000000000000000815260040161194090613d91565b60405180910390fd5b600073ffffffffffffffffffffffffffffffffffffffff168273ffffffffffffffffffffffffffffffffffffffff16036119b8576040517f08c379a00000000000000000000000000000000000000000000000000000000081526004016119af90613e23565b60405180910390fd5b6119c5838383600161248a565b8273ffffffffffffffffffffffffffffffffffffffff166119e582610c46565b73ffffffffffffffffffffffffffffffffffffffff1614611a3b576040517f08c379a0000000000000000000000000000000000000000000000000000000008152600401611a3290613d91565b60405180910390fd5b6004600082815260200190815260200160002060006101000a81549073ffffffffffffffffffffffffffffffffffffffff02191690556001600360008573ffffffffffffffffffffffffffffffffffffffff1673ffffffffffffffffffffffffffffffffffffffff168152602001908152602001600020600082825403925050819055506001600360008473ffffffffffffffffffffffffffffffffffffffff1673ffffffffffffffffffffffffffffffffffffffff16815260200190815260200160002060008282540192505081905550816002600083815260200190815260200160002060006101000a81548173ffffffffffffffffffffffffffffffffffffffff021916908373ffffffffffffffffffffffffffffffffffffffff160217905550808273ffffffffffffffffffffffffffffffffffffffff168473ffffffffffffffffffffffffffffffffffffffff167fddf252ad1be2c89b69c2b068fc378daa952ba7f163c4a11628f55a4df523b3ef60405160405180910390a4611bc78383836001612490565b505050565b60006002600083815260200190815260200160002060009054906101000a900473ffffffffffffffffffffffffffffffffffffffff169050919050565b8173ffffffffffffffffffffffffffffffffffffffff168373ffffffffffffffffffffffffffffffffffffffff1603611c77576040517f08c379a0000000000000000000000000000000000000000000000000000000008152600401611c6e90613e8f565b60405180910390fd5b80600560008573ffffffffffffffffffffffffffffffffffffffff1673ffffffffffffffffffffffffffffffffffffffff16815260200190815260200160002060008473ffffffffffffffffffffffffffffffffffffffff1673ffffffffffffffffffffffffffffffffffffffff16815260200190815260200160002060006101000a81548160ff0219169083151502179055508173ffffffffffffffffffffffffffffffffffffffff168373ffffffffffffffffffffffffffffffffffffffff167f17307eab39ab6107e8899845ad3d59bd9653f200f220920489ca2b5937696c3183604051611d689190612abf565b60405180910390a3505050565b611d808484846118d3565b611d8c84848484612496565b611dcb576040517f08c379a0000000000000000000000000000000000000000000000000000000008152600401611dc290613f21565b60405180910390fd5b50505050565b606060405180602001604052806000815250905090565b6060611df382611732565b6000611dfd611dd1565b90506000815111611e1d5760405180602001604052806000815250611e48565b80611e2784612013565b604051602001611e389291906138e0565b6040516020818303038152906040525b915050919050565b600081600001549050919050565b60008060008084519050600092505b80821015612008576000858381518110611e8a57611e89613f41565b5b602001015160f81c60f81b9050608060f81b817effffffffffffffffffffffffffffffffffffffffffffffffffffffffffffff19161015611ed957600183611ed29190613f9f565b9250611ff4565b60e060f81b817effffffffffffffffffffffffffffffffffffffffffffffffffffffffffffff19161015611f1b57600283611f149190613f9f565b9250611ff3565b60f060f81b817effffffffffffffffffffffffffffffffffffffffffffffffffffffffffffff19161015611f5d57600383611f569190613f9f565b9250611ff2565b60f8801b817effffffffffffffffffffffffffffffffffffffffffffffffffffffffffffff19161015611f9e57600483611f979190613f9f565b9250611ff1565b60fc60f81b817effffffffffffffffffffffffffffffffffffffffffffffffffffffffffffff19161015611fe057600583611fd99190613f9f565b9250611ff0565b600683611fed9190613f9f565b92505b5b5b5b5b50828061200090613fd3565b935050611e6d565b829350505050919050565b6060600060016120228461261d565b01905060008167ffffffffffffffff81111561204157612040612dc1565b5b6040519080825280601f01601f1916602001820160405280156120735781602001600182028036833780820191505090505b509050600082602001820190505b6001156120d6578080600190039150507f3031323334353637383961626364656600000000000000000000000000000000600a86061a8153600a85816120ca576120c961401b565b5b04945060008503612081575b819350505050919050565b61217d848484846040516024016120fb949392919061404a565b6040516020818303038152906040527f8eafb02b000000000000000000000000000000000000000000000000000000007bffffffffffffffffffffffffffffffffffffffffffffffffffffffff19166020820180517bffffffffffffffffffffffffffffffffffffffffffffffffffffffff8381831617835250505050612420565b50505050565b606060008251036121a5576040518060200160405280600081525090506122e1565b60006040518060600160405280604081526020016144da60409139905060006003600285516121d49190613f9f565b6121de91906140a4565b60046121ea91906140d5565b67ffffffffffffffff81111561220357612202612dc1565b5b6040519080825280601f01601f1916602001820160405280156122355781602001600182028036833780820191505090505b509050600182016020820185865187015b808210156122a1576003820191508151603f8160121c168501518453600184019350603f81600c1c168501518453600184019350603f8160061c168501518453600184019350603f8116850151845360018401935050612246565b50506003865106600181146122bd57600281146122d0576122d8565b603d6001830353603d60028303536122d8565b603d60018303535b50505080925050505b919050565b61237c816040516024016122fa9190612b6a565b6040516020818303038152906040527f41304fac000000000000000000000000000000000000000000000000000000007bffffffffffffffffffffffffffffffffffffffffffffffffffffffff19166020820180517bffffffffffffffffffffffffffffffffffffffffffffffffffffffff8381831617835250505050612420565b50565b612399828260405180602001604052806000815250612770565b5050565b6123a682612449565b6123e5576040517f08c379a00000000000000000000000000000000000000000000000000000000081526004016123dc90614189565b60405180910390fd5b8060066000848152602001908152602001600020908161240591906141a9565b505050565b6001816000016000828254019250508190555050565b60008151905060006a636f6e736f6c652e6c6f679050602083016000808483855afa5050505050565b60008073ffffffffffffffffffffffffffffffffffffffff1661246b83611bcc565b73ffffffffffffffffffffffffffffffffffffffff1614159050919050565b50505050565b50505050565b60006124b78473ffffffffffffffffffffffffffffffffffffffff166127cb565b15612610578373ffffffffffffffffffffffffffffffffffffffff1663150b7a026124e061177d565b8786866040518563ffffffff1660e01b815260040161250294939291906142d0565b6020604051808303816000875af192505050801561253e57506040513d601f19601f8201168201806040525081019061253b9190614331565b60015b6125c0573d806000811461256e576040519150601f19603f3d011682016040523d82523d6000602084013e612573565b606091505b5060008151036125b8576040517f08c379a00000000000000000000000000000000000000000000000000000000081526004016125af90613f21565b60405180910390fd5b805181602001fd5b63150b7a0260e01b7bffffffffffffffffffffffffffffffffffffffffffffffffffffffff1916817bffffffffffffffffffffffffffffffffffffffffffffffffffffffff191614915050612615565b600190505b949350505050565b600080600090507a184f03e93ff9f4daa797ed6e38ed64bf6a1f010000000000000000831061267b577a184f03e93ff9f4daa797ed6e38ed64bf6a1f01000000000000000083816126715761267061401b565b5b0492506040810190505b6d04ee2d6d415b85acef810000000083106126b8576d04ee2d6d415b85acef810000000083816126ae576126ad61401b565b5b0492506020810190505b662386f26fc1000083106126e757662386f26fc1000083816126dd576126dc61401b565b5b0492506010810190505b6305f5e1008310612710576305f5e10083816127065761270561401b565b5b0492506008810190505b612710831061273557612710838161272b5761272a61401b565b5b0492506004810190505b60648310612758576064838161274e5761274d61401b565b5b0492506002810190505b600a8310612767576001810190505b80915050919050565b61277a83836127ee565b6127876000848484612496565b6127c6576040517f08c379a00000000000000000000000000000000000000000000000000000000081526004016127bd90613f21565b60405180910390fd5b505050565b6000808273ffffffffffffffffffffffffffffffffffffffff163b119050919050565b600073ffffffffffffffffffffffffffffffffffffffff168273ffffffffffffffffffffffffffffffffffffffff160361285d576040517f08c379a0000000000000000000000000000000000000000000000000000000008152600401612854906143aa565b60405180910390fd5b61286681612449565b156128a6576040517f08c379a000000000000000000000000000000000000000000000000000000000815260040161289d90614416565b60405180910390fd5b6128b460008383600161248a565b6128bd81612449565b156128fd576040517f08c379a00000000000000000000000000000000000000000000000000000000081526004016128f490614416565b60405180910390fd5b6001600360008473ffffffffffffffffffffffffffffffffffffffff1673ffffffffffffffffffffffffffffffffffffffff16815260200190815260200160002060008282540192505081905550816002600083815260200190815260200160002060006101000a81548173ffffffffffffffffffffffffffffffffffffffff021916908373ffffffffffffffffffffffffffffffffffffffff160217905550808273ffffffffffffffffffffffffffffffffffffffff16600073ffffffffffffffffffffffffffffffffffffffff167fddf252ad1be2c89b69c2b068fc378daa952ba7f163c4a11628f55a4df523b3ef60405160405180910390a4612a07600083836001612490565b5050565b6000604051905090565b600080fd5b600080fd5b60007fffffffff0000000000000000000000000000000000000000000000000000000082169050919050565b612a5481612a1f565b8114612a5f57600080fd5b50565b600081359050612a7181612a4b565b92915050565b600060208284031215612a8d57612a8c612a15565b5b6000612a9b84828501612a62565b91505092915050565b60008115159050919050565b612ab981612aa4565b82525050565b6000602082019050612ad46000830184612ab0565b92915050565b600081519050919050565b600082825260208201905092915050565b60005b83811015612b14578082015181840152602081019050612af9565b60008484015250505050565b6000601f19601f8301169050919050565b6000612b3c82612ada565b612b468185612ae5565b9350612b56818560208601612af6565b612b5f81612b20565b840191505092915050565b60006020820190508181036000830152612b848184612b31565b905092915050565b6000819050919050565b612b9f81612b8c565b8114612baa57600080fd5b50565b600081359050612bbc81612b96565b92915050565b600060208284031215612bd857612bd7612a15565b5b6000612be684828501612bad565b91505092915050565b600073ffffffffffffffffffffffffffffffffffffffff82169050919050565b6000612c1a82612bef565b9050919050565b612c2a81612c0f565b82525050565b6000602082019050612c456000830184612c21565b92915050565b612c5481612c0f565b8114612c5f57600080fd5b50565b600081359050612c7181612c4b565b92915050565b60008060408385031215612c8e57612c8d612a15565b5b6000612c9c85828601612c62565b9250506020612cad85828601612bad565b9150509250929050565b600080fd5b600080fd5b600080fd5b60008083601f840112612cdc57612cdb612cb7565b5b8235905067ffffffffffffffff811115612cf957612cf8612cbc565b5b602083019150836001820283011115612d1557612d14612cc1565b5b9250929050565b60008060208385031215612d3357612d32612a15565b5b600083013567ffffffffffffffff811115612d5157612d50612a1a565b5b612d5d85828601612cc6565b92509250509250929050565b600080600060608486031215612d8257612d81612a15565b5b6000612d9086828701612c62565b9350506020612da186828701612c62565b9250506040612db286828701612bad565b9150509250925092565b600080fd5b7f4e487b7100000000000000000000000000000000000000000000000000000000600052604160045260246000fd5b612df982612b20565b810181811067ffffffffffffffff82111715612e1857612e17612dc1565b5b80604052505050565b6000612e2b612a0b565b9050612e378282612df0565b919050565b600067ffffffffffffffff821115612e5757612e56612dc1565b5b612e6082612b20565b9050602081019050919050565b82818337600083830152505050565b6000612e8f612e8a84612e3c565b612e21565b905082815260208101848484011115612eab57612eaa612dbc565b5b612eb6848285612e6d565b509392505050565b600082601f830112612ed357612ed2612cb7565b5b8135612ee3848260208601612e7c565b91505092915050565b600060208284031215612f0257612f01612a15565b5b600082013567ffffffffffffffff811115612f2057612f1f612a1a565b5b612f2c84828501612ebe565b91505092915050565b600060208284031215612f4b57612f4a612a15565b5b6000612f5984828501612c62565b91505092915050565b612f6b81612b8c565b82525050565b6000602082019050612f866000830184612f62565b92915050565b6000612f9782612bef565b9050919050565b612fa781612f8c565b82525050565b6000602082019050612fc26000830184612f9e565b92915050565b612fd181612aa4565b8114612fdc57600080fd5b50565b600081359050612fee81612fc8565b92915050565b6000806040838503121561300b5761300a612a15565b5b600061301985828601612c62565b925050602061302a85828601612fdf565b9150509250929050565b600067ffffffffffffffff82111561304f5761304e612dc1565b5b61305882612b20565b9050602081019050919050565b600061307861307384613034565b612e21565b90508281526020810184848401111561309457613093612dbc565b5b61309f848285612e6d565b509392505050565b600082601f8301126130bc576130bb612cb7565b5b81356130cc848260208601613065565b91505092915050565b600080600080608085870312156130ef576130ee612a15565b5b60006130fd87828801612c62565b945050602061310e87828801612c62565b935050604061311f87828801612bad565b925050606085013567ffffffffffffffff8111156131405761313f612a1a565b5b61314c878288016130a7565b91505092959194509250565b6000806000806040858703121561317257613171612a15565b5b600085013567ffffffffffffffff8111156131905761318f612a1a565b5b61319c87828801612cc6565b9450945050602085013567ffffffffffffffff8111156131bf576131be612a1a565b5b6131cb87828801612cc6565b925092505092959194509250565b600080604083850312156131f0576131ef612a15565b5b60006131fe85828601612c62565b925050602061320f85828601612c62565b9150509250929050565b7f4e487b7100000000000000000000000000000000000000000000000000000000600052602260045260246000fd5b6000600282049050600182168061326057607f821691505b60208210810361327357613272613219565b5b50919050565b7f4552433732313a20617070726f76616c20746f2063757272656e74206f776e6560008201527f7200000000000000000000000000000000000000000000000000000000000000602082015250565b60006132d5602183612ae5565b91506132e082613279565b604082019050919050565b60006020820190508181036000830152613304816132c8565b9050919050565b7f4552433732313a20617070726f76652063616c6c6572206973206e6f7420746f60008201527f6b656e206f776e6572206f7220617070726f76656420666f7220616c6c000000602082015250565b6000613367603d83612ae5565b91506133728261330b565b604082019050919050565b600060208201905081810360008301526133968161335a565b9050919050565b600081905092915050565b60006133b4838561339d565b93506133c1838584612e6d565b82840190509392505050565b60006133da8284866133a8565b91508190509392505050565b7f4552433732313a2063616c6c6572206973206e6f7420746f6b656e206f776e6560008201527f72206f7220617070726f76656400000000000000000000000000000000000000602082015250565b6000613442602d83612ae5565b915061344d826133e6565b604082019050919050565b6000602082019050818103600083015261347181613435565b9050919050565b600081905092915050565b50565b6000613493600083613478565b915061349e82613483565b600082019050919050565b60006134b482613486565b9150819050919050565b7f4661696c656420746f207769746864726177204d617469630000000000000000600082015250565b60006134f4601883612ae5565b91506134ff826134be565b602082019050919050565b60006020820190508181036000830152613523816134e7565b9050919050565b7f4552433732313a20696e76616c696420746f6b656e2049440000000000000000600082015250565b6000613560601883612ae5565b915061356b8261352a565b602082019050919050565b6000602082019050818103600083015261358f81613553565b9050919050565b7f4552433732313a2061646472657373207a65726f206973206e6f74206120766160008201527f6c6964206f776e65720000000000000000000000000000000000000000000000602082015250565b60006135f2602983612ae5565b91506135fd82613596565b604082019050919050565b60006020820190508181036000830152613621816135e5565b9050919050565b600082905092915050565b60008190508160005260206000209050919050565b60006020601f8301049050919050565b600082821b905092915050565b6000600883026136957fffffffffffffffffffffffffffffffffffffffffffffffffffffffffffffffff82613658565b61369f8683613658565b95508019841693508086168417925050509392505050565b6000819050919050565b60006136dc6136d76136d284612b8c565b6136b7565b612b8c565b9050919050565b6000819050919050565b6136f6836136c1565b61370a613702826136e3565b848454613665565b825550505050565b600090565b61371f613712565b61372a8184846136ed565b505050565b5b8181101561374e57613743600082613717565b600181019050613730565b5050565b601f8211156137935761376481613633565b61376d84613648565b8101602085101561377c578190505b61379061378885613648565b83018261372f565b50505b505050565b600082821c905092915050565b60006137b660001984600802613798565b1980831691505092915050565b60006137cf83836137a5565b9150826002028217905092915050565b6137e98383613628565b67ffffffffffffffff81111561380257613801612dc1565b5b61380c8254613248565b613817828285613752565b6000601f8311600181146138465760008415613834578287013590505b61383e85826137c3565b8655506138a6565b601f19841661385486613633565b60005b8281101561387c57848901358255600182019150602085019450602081019050613857565b868310156138995784890135613895601f8916826137a5565b8355505b6001600288020188555050505b50505050505050565b60006138ba82612ada565b6138c4818561339d565b93506138d4818560208601612af6565b80840191505092915050565b60006138ec82856138af565b91506138f882846138af565b91508190509392505050565b7f4e6f7420656e6f756768204d6174696320706169640000000000000000000000600082015250565b600061393a601583612ae5565b915061394582613904565b602082019050919050565b600060208201905081810360008301526139698161392d565b9050919050565b7f2e00000000000000000000000000000000000000000000000000000000000000600082015250565b60006139a660018361339d565b91506139b182613970565b600182019050919050565b600081546139c981613248565b6139d3818661339d565b945060018216600081146139ee5760018114613a0357613a36565b60ff1983168652811515820286019350613a36565b613a0c85613633565b60005b83811015613a2e57815481890152600182019150602081019050613a0f565b838801955050505b50505092915050565b6000613a4c8285876133a8565b9150613a5782613999565b9150613a6382846139bc565b9150819050949350505050565b6000613a7c82866139bc565b9150613a8882856138af565b9150613a9482846139bc565b9150819050949350505050565b7f7b226e616d65223a202200000000000000000000000000000000000000000000600082015250565b6000613ad7600a8361339d565b9150613ae282613aa1565b600a82019050919050565b7f222c20226465736372697074696f6e223a20224120646f6d61696e206f6e207460008201527f686520436f7265206e616d652073657276696365222c2022696d616765223a2060208201527f22646174613a696d6167652f7376672b786d6c3b6261736536342c0000000000604082015250565b6000613b6f605b8361339d565b9150613b7a82613aed565b605b82019050919050565b7f222c20226c656e677468223a2022000000000000000000000000000000000000600082015250565b6000613bbb600e8361339d565b9150613bc682613b85565b600e82019050919050565b7f227d000000000000000000000000000000000000000000000000000000000000600082015250565b6000613c0760028361339d565b9150613c1282613bd1565b600282019050919050565b6000613c2882613aca565b9150613c3482866138af565b9150613c3f82613b62565b9150613c4b82856138af565b9150613c5682613bae565b9150613c6282846138af565b9150613c6d82613bfa565b9150819050949350505050565b7f646174613a6170706c69636174696f6e2f6a736f6e3b6261736536342c000000600082015250565b6000613cb0601d8361339d565b9150613cbb82613c7a565b601d82019050919050565b6000613cd182613ca3565b9150613cdd82846138af565b915081905092915050565b60006040820190508181036000830152613d028185612b31565b90508181036020830152613d168184612b31565b90509392505050565b7f4552433732313a207472616e736665722066726f6d20696e636f72726563742060008201527f6f776e6572000000000000000000000000000000000000000000000000000000602082015250565b6000613d7b602583612ae5565b9150613d8682613d1f565b604082019050919050565b60006020820190508181036000830152613daa81613d6e565b9050919050565b7f4552433732313a207472616e7366657220746f20746865207a65726f2061646460008201527f7265737300000000000000000000000000000000000000000000000000000000602082015250565b6000613e0d602483612ae5565b9150613e1882613db1565b604082019050919050565b60006020820190508181036000830152613e3c81613e00565b9050919050565b7f4552433732313a20617070726f766520746f2063616c6c657200000000000000600082015250565b6000613e79601983612ae5565b9150613e8482613e43565b602082019050919050565b60006020820190508181036000830152613ea881613e6c565b9050919050565b7f4552433732313a207472616e7366657220746f206e6f6e20455243373231526560008201527f63656976657220696d706c656d656e7465720000000000000000000000000000602082015250565b6000613f0b603283612ae5565b9150613f1682613eaf565b604082019050919050565b60006020820190508181036000830152613f3a81613efe565b9050919050565b7f4e487b7100000000000000000000000000000000000000000000000000000000600052603260045260246000fd5b7f4e487b7100000000000000000000000000000000000000000000000000000000600052601160045260246000fd5b6000613faa82612b8c565b9150613fb583612b8c565b9250828201905080821115613fcd57613fcc613f70565b5b92915050565b6000613fde82612b8c565b91507fffffffffffffffffffffffffffffffffffffffffffffffffffffffffffffffff82036140105761400f613f70565b5b600182019050919050565b7f4e487b7100000000000000000000000000000000000000000000000000000000600052601260045260246000fd5b600060808201905081810360008301526140648187612b31565b905081810360208301526140788186612b31565b9050818103604083015261408c8185612b31565b905061409b6060830184612f62565b95945050505050565b60006140af82612b8c565b91506140ba83612b8c565b9250826140ca576140c961401b565b5b828204905092915050565b60006140e082612b8c565b91506140eb83612b8c565b92508282026140f981612b8c565b915082820484148315176141105761410f613f70565b5b5092915050565b7f45524337323155524953746f726167653a2055524920736574206f66206e6f6e60008201527f6578697374656e7420746f6b656e000000000000000000000000000000000000602082015250565b6000614173602e83612ae5565b915061417e82614117565b604082019050919050565b600060208201905081810360008301526141a281614166565b9050919050565b6141b282612ada565b67ffffffffffffffff8111156141cb576141ca612dc1565b5b6141d58254613248565b6141e0828285613752565b600060209050601f8311600181146142135760008415614201578287015190505b61420b85826137c3565b865550614273565b601f19841661422186613633565b60005b8281101561424957848901518255600182019150602085019450602081019050614224565b868310156142665784890151614262601f8916826137a5565b8355505b6001600288020188555050505b505050505050565b600081519050919050565b600082825260208201905092915050565b60006142a28261427b565b6142ac8185614286565b93506142bc818560208601612af6565b6142c581612b20565b840191505092915050565b60006080820190506142e56000830187612c21565b6142f26020830186612c21565b6142ff6040830185612f62565b81810360608301526143118184614297565b905095945050505050565b60008151905061432b81612a4b565b92915050565b60006020828403121561434757614346612a15565b5b60006143558482850161431c565b91505092915050565b7f4552433732313a206d696e7420746f20746865207a65726f2061646472657373600082015250565b6000614394602083612ae5565b915061439f8261435e565b602082019050919050565b600060208201905081810360008301526143c381614387565b9050919050565b7f4552433732313a20746f6b656e20616c7265616479206d696e74656400000000600082015250565b6000614400601c83612ae5565b915061440b826143ca565b602082019050919050565b6000602082019050818103600083015261442f816143f3565b905091905056fe0a2d2d2d2d2d2d2d2d2d2d2d2d2d2d2d2d2d2d2d2d2d2d2d2d2d2d2d2d2d2d2d2d2d2d2d2d2d2d2d2d2d2d2d2d2d2d2d2d2d2d2d2d2d2d2d2d5265676973746572696e672025732e2573206f6e2074686520636f6e7472616374207769746820746f6b656e49442025642d2d2d2d2d2d2d2d2d2d2d2d2d2d2d2d2d2d2d2d2d2d2d2d2d2d2d2d2d2d2d2d2d2d2d2d2d2d2d2d2d2d2d2d2d2d2d2d2d2d2d2d2d2d2d2d0a4142434445464748494a4b4c4d4e4f505152535455565758595a6162636465666768696a6b6c6d6e6f707172737475767778797a303132333435363738392b2fa26469706673582212205daa7e287e63e30191ad88e2e0efc78e56fba3e322ff33180d4671a0b283fe1164736f6c634300081200333c7376672077696474683d2235313222206865696768743d22353132222076696577426f783d2230203020323530302032353030222066696c6c3d226e6f6e652220786d6c6e733d22687474703a2f2f7777772e77332e6f72672f323030302f737667223e3c706174682066696c6c3d2275726c282361292220643d224d3020306832353030763235303048307a222f3e3c7061746820643d224d3534392e35203336352e363337563536332e32376132372e3439392032372e3439392030203020312d31342e3239372032342e3132334c3337332e333831203637352e39366132372e3439392032372e3439392030203020312d32362e31372e3132386c2d3136362e3137392d38382e3836346132372e352032372e352030203020312d31342e3533322d32342e3235762d3139372e30346132372e352032372e352030203020312031342e3434312d32342e3230326c3136362e3137372d38392e3636366132372e352032372e352030203020312032362e3335332e3132396c3136312e3832342038392e3336396132372e352032372e352030203020312031342e3230352032342e3037335a222066696c6c3d2223443944394439222066696c6c2d6f7061636974793d222e303522207374726f6b653d222346464136323922207374726f6b652d77696474683d223335222f3e3c646566733e3c6c696e6561724772616469656e742069643d2261222078313d2231323530222079313d2232353030222078323d2231323530222079323d222d37322e3522206772616469656e74556e6974733d227573657253706163654f6e557365223e3c73746f702073746f702d636f6c6f723d2223463939343144222f3e3c73746f70206f66667365743d222e393335222073746f702d636f6c6f723d2223463139443342222073746f702d6f7061636974793d2230222f3e3c2f6c696e6561724772616469656e743e3c2f646566733e3c7465787420783d223939392220793d22323233332220666f6e742d73697a653d22313530222066696c6c3d2223303030222066696c7465723d2275726c282341292220666f6e742d66616d696c793d22506c7573204a616b617274612053616e732c44656a6156752053616e732c4e6f746f20436f6c6f7220456d6f6a692c4170706c6520436f6c6f7220456d6f6a692c73616e732d73657269662220666f6e742d7765696768743d22626f6c64223e",
  "linkReferences": {},
  "deployedLinkReferences": {}
}